:020000040040BA
:10000000A0304020E51B4000E31B4000E31B400004
:10001000E31B4000E31B4000E31B40000000000026
:10002000000000000000000000000000E31B400092
:10003000E31B400000000000E31B4000E31B400006
:10004000E31B4000E31B4000E31B4000E31B4000B8
:10005000E31B4000E31B4000E31B4000E31B4000A8
:10006000E31B4000000000005D15400071154000DA
:1000700085154000E31B4000E31B4000E31B4000EC
:1000800099154000AD154000E31B4000E31B400004
:10009000E31B4000E31B4000E31B4000E31B400068
:1000A000E31B4000E31B4000E31B4000E31B400058
:1000B000E31B4000E31B4000E31B4000E31B400048
:1000C000E31B4000E31B4000E31B4000E31B400038
:1000D000E31B4000E31B4000E31B4000E31B400028
:1000E000E31B4000E31B4000E31B4000E31B400018
:1000F000E31B4000E31B4000E31B4000E31B400008
:10010000E31B4000E31B4000E31B4000E31B4000F7
:10011000E31B4000000000000000000000000000A1
:10012000E31B4000E31B4000E31B4000E31B4000D7
:10013000E31B4000E31B4000E31B4000E31B4000C7
:10014000E31B4000E31B4000E31B4000E31B4000B7
:10015000E31B4000E31B4000E31B4000E31B4000A7
:10016000E31B4000E31B400010B5054C237833B976
:10017000044B13B10448AFF300800123237010BD7A
:10018000D00B402000000000CC3C45000C4B43B19C
:100190000C480D4910B5AFF300800C48036823B933
:1001A00010BD0A48036833B97047094B002BF7D0DC
:1001B000BDE810401847064B002BF5D0184700BF8C
:1001C00000000000CC3C4500D40B4020CC3C450056
:1001D00000000000F0B587B004460E461746816067
:1001E000027383610025056107209D4B98472060BD
:1001F00001950595022302930390072304938DF83C
:10020000147001A93046974B9847401B18BF012036
:10021000404208B107B0F0BD2568A87900EB400066
:1002200040008F4B9847606000230193049305932F
:1002300007238DF80430022302930390AB7903EB7C
:1002400043035B000493237B8DF8143001A9A0685D
:10025000844B9847003018BF012040420028D9D174
:1002600027686068BB7903EB430676000736B6B2B1
:100270003A4606370021DFF8F0C192F801E0157820
:1002800045EA0E2585EA410111F0807F18BF81EA19
:100290000C010232BA42F0D1027843EA022383EA27
:1002A000410212F0807F03D082F4000282F01B0230
:1002B000A6F10807012F12DD0123DFF8ACE1C11818
:1002C0004D78C15C41EA052181EA420212F0807F4B
:1002D00018BF82EA0E0202339BB2BB42EFDB30440E
:1002E00010F8083C83EA420212F0807F03D082F4C7
:1002F000000282F01B0222F07F4500230193059348
:100300008DF80460360A8DF8056002230293CDF85B
:100310000CD003230493237B8DF8143001A9A0682B
:10032000504B984728B34FF0FF33AB4240F08B80DF
:100330002568A87998B100230133DAB29042FBD83E
:100340006268431EDBB2013303EB430302EB43015C
:10035000002053791844C0B206329142F9D14000CE
:100360003F4B98476061AB7973B100270126BE46C9
:1003700037E09DF802209DF8003043EA02439DF8E3
:10038000012043EA0223D0E76FF0030042E7013087
:10039000C0B262685319197981421CD35B79002B72
:1003A000F5D062682A445379002BF0D03346117897
:1003B000626902F81310626902EB43025070013364
:1003C000DBB262682A44991B92F805C0C9B28C4519
:1003D000EDD81E46DBE70137FFB223689B799F42C9
:1003E00007D207EB47035A0015466368134470466B
:1003F000D4E75BB31046013BDBB2013303EB4303AD
:1004000002EB4302002143791944C9B2063082420B
:10041000F9D1F1B162691378092B0FD000230133B0
:10042000DBB28B420CD012F8020F0928F7D15BB275
:10043000B3F1FF3F10D023770020EBE60023F6E76F
:100440006FF00300E6E66FF00300E3E66FF00300F1
:10045000E0E66FF00300DDE66FF00300DAE600BFD0
:1004600001334000611940001B00800003689A7945
:10047000D2B110B4446823788B420ED0A31D013A48
:10048000D2B2013202EB420204EB4202934209D0A3
:100490001C4613F8060B8842F8D1B4F801005DF849
:1004A000044B70470020FAE70020704730B587B052
:1004B00000230193049305938DF804100B0A8DF823
:1004C000053002230293039203689A79BAB1446813
:1004D000B4F801308B420FD0A31D013AD2B20132E1
:1004E00002EB420204EB4202934216D01C46063352
:1004F000B4F801508D42F7D1E2780132D2B20492C1
:10050000037B8DF8143001A98068054B98470030B3
:1005100018BF0120404207B030BD0022EFE700BF06
:100520000D1A400000B589B08DF807200023039311
:1005300007938DF80C10090A8DF80D10022304930F
:100540000DF10703059301230693037B8DF81C30FF
:1005500003A98068044B9847003018BF012040422F
:1005600009B05DF804FB00BF0D1A40008269074B1B
:1005700003EB52135B02D96B02F01F02012303FA53
:1005800002F20A420CBF18460020704707072000FD
:1005900030B587B004460D46002205210D4B984723
:1005A0000023019305938DF80400000A8DF80500DF
:1005B00002230293039509230493237B8DF81430BF
:1005C00001A9A068044B9847003018BF01204042A1
:1005D00007B030BD6D04400061194000F0B585B032
:1005E00004460E46174D184F2046A84728B301A9C8
:1005F0002046B847034610BB9DF80430626912F8E4
:100600001320092AF0D1227F9B1A33709DF8053000
:1006100073709DF808309DF806101A0942EA01121D
:1006200072809DF8072003F00F0343EA0213B380A2
:100630009DF80930B371002301E06FF00303184601
:1006400005B0F0BD6D0540009105400010B51048A3
:10065000104B98473E2100200F4B98470F4CA04766
:100660000028FCD00E4B98470E4A0F4B9A620F4C55
:10067000A0470028FCD002200D4B984700200D4BCE
:1006800098470D4B98470D48024B984710BD00BF47
:10069000000E2707B91D40005D164000B11640004E
:1006A000C1164000013F182000060E40D116400040
:1006B000C1154000F9154000AD1C400000A3E11138
:1006C000002A54D02DE9F84F924606460F468A4438
:1006D000DFF8B880274DDFF8B89006E021464046A5
:1006E000A8470028FAD1BA453ED017F8014B464535
:1006F000F4D04E4516D0204B9E4219D01F4B9E423F
:100700001CD01F4B9E421FD01E4B9E4224D01E4B1E
:100710009E42E8D1DFF87CB021461B48D84700282C
:10072000FAD1E0E721464846A8470028FAD1DAE79F
:1007300021461148A8470028FAD1D4E721460F489E
:10074000A8470028FAD1CEE7DFF848B021460C4888
:10075000D8470028FAD1C6E7DFF838B02146094863
:10076000D8470028FAD1BEE70020BDE8F88F002066
:10077000704700BFAD1A4000001A0E40001C0E402A
:10078000004002400080024000C0024000080E40CD
:10079000000A0E40B51B400010B50446104B9847A8
:1007A00080232360636843F001036360636843F060
:1007B00010036360636823F08003636000212046B8
:1007C000084B9847636823F002036360636823F073
:1007D0000403636000212046034B984710BD00BF0F
:1007E000011740002D174000431740002DE9F0414C
:1007F00004460D46164615491846154B98470746B8
:1008000000231A4629682046DFF85C80C04708228A
:10081000296820460F4B9847FAB2296820460E4BAC
:1008200098470822296820460C4B98477208296887
:1008300020460B4B984786F0010202F0010229681E
:100840002046084B9847BDE8F08100BF80D1F008F2
:100850001F1840000B18400035184000C517400015
:1008600089174000A71740005D18400008B543688D
:1008700013F0040F06D009680F2900D908BD064BF4
:10088000984708BD09680329F8D8012303FA01F144
:10089000C943014B9847F1E72D1740001AB110B436
:1008A0000C46114406E00020704714F8013BC36079
:1008B000A1420CD043F69923026912F0020FF4D141
:1008C000013BF9D16FF002005DF8044B7047002046
:1008D000FAE73AB170B415460C460D44FF2640F2D3
:1008E000012112E000207047C66043F69923026997
:1008F00031EA020204D0013BF9D16FF002000EE0B0
:10090000836804F8013BA5420BD043F699230269A2
:1009100012F0020FE8D1013BF9D16FF0020070BC78
:1009200070470020FBE700002DE9F04180B90C463C
:100930009046002A0FDD8F18084E094D3068214679
:100940002B6898470134BC42F8D14046BDE8F0819D
:100950004FF0FF38F9E78046F7E700BF601040200E
:10096000581040200138022815D82DE9F0410E46D4
:1009700014469AB10D46DFF838800C4FD8F80000C5
:1009800015F8011B3B68984700280ADBA81B013CAF
:10099000F4D1BDE8F0814FF0FF3070471046BDE85C
:1009A000F0814FF0FF30BDE8F08100BF5C104020C7
:1009B000601040202DE9F0414FF400429E4B5A60F8
:1009C000BFF34F8FBFF36F8F9C4B0022C3F85022B1
:1009D0005A6942F400325A61BFF34F8FBFF36F8FF1
:1009E000D3F88070C7F34E3607F007000430C7F322
:1009F000C907B7FA87FE0EF01F0EBFF34F8F4FF0F7
:100A0000FF3404FA00FC06FA00F004FA0EF407FAC8
:100A10000EFE1D463A46734640EA0301C5F86012D1
:100A2000013A2344B2F1FF3FF6D1013E6044B6F1F2
:100A3000FF3FEFD1BFF34F8F804B5A6942F48032B2
:100A40005A61BFF34F8FBFF36F8F7D4A7D4951606D
:100A5000A1F580715160BFF34F8FBFF36F8FD3F853
:100A6000902222F00102C3F89022D3F8942222F0BF
:100A70000102C3F89422BFF34F8FBFF36F8F0A2098
:100A8000714CA0470B20A0470C20A0471020A04786
:100A90001120A0476D4E4FF48078C6F81080C6F83C
:100AA000A080C6F830806A4C4FF400656561C4F8D8
:100AB000A0506566C4F8905065652562C4F88450FE
:100AC000236F23F400632367636F23F4006363677A
:100AD000C4F8C050C4F8D450C4F8B0504FF4001358
:100AE0002366C4F8903063656362C4F88030226F77
:100AF00022F400122267626F22F4001262676360C0
:100B0000544AD2F8143143F01003C2F8143102F5FC
:100B1000B22210231366C2F8903053655362C2F8B4
:100B20008030116F19431167516F1943516753603A
:100B300008222266C4F8902062656262C4F88020B0
:100B4000216F21F008012167616F21F008016167C1
:100B500062602366C4F8903063656362C4F88030D5
:100B6000226F22F010022267626F22F01002626789
:100B7000636000234FF400524FF060513046364F0F
:100B8000B84700234FF080424FF060513046B847DD
:100B90000123FF224FF000613046B84701233F2276
:100BA0004FF000612D48B84701234FF4C0324FF099
:100BB00000612046B847012342464FF000613046AD
:100BC000B84701232A464FF000613046B847012359
:100BD0004FF400224FF000612148B84700234FF442
:100BE00000724FF080513046B8474FF400713046E4
:100BF0001C4B98474FF0805174201B4CA0474FF07E
:100C000080517520A0474FF080517620A0474FF0CB
:100C100080517B20A0474FF060511820A0474FF033
:100C200060510620A0474FF060515320A047532049
:100C30000E4B9847BDE8F08150180E4000ED00E0E3
:100C4000000C0E400C08005AE116400000120E4045
:100C5000000E0E40008008400D13400000160E40AC
:100C600000140E4019124000DD134000A51340008F
:100C700030B40468B4F5A07F02D340F23F1404609E
:100C80001468B4F5A07F02D340F23F1414600C68DE
:100C9000B4F5F07F02D340F2DF140C601C68B4F5A9
:100CA000F07F02D340F2DF141C6004681568AC4288
:100CB00001D9056014600A681868824201D9086089
:100CC0001A6030BC7047000010B582B006200A4B95
:100CD0009847002303222C210848094CA0470023F1
:100CE0000193019BFE2B05D8019B01330193019BCE
:100CF000FE2BF9D902B010BDC113400000800040A6
:100D00005517400070B582B005460E4614460620C1
:100D1000144B98470023032229461348134DA84734
:100D200000230193019BFE2B05D8019B0133019306
:100D3000019BFE2BF9D90CB902B070BD06200C4BFB
:100D400098472246314608480A4B984700230193AA
:100D5000019B5E2BF0D8019B01330193019B5E2B1D
:100D6000F9D9E9E7C1134000008000405517400061
:100D7000A51340009D08400030B583B004460D46E1
:100D800006200A4B98472A4621460948094B9847AE
:100D900000230193019BFE2B05D8019B0133019396
:100DA000019BFE2BF9D903B030BD00BFA513400055
:100DB000008000409D084000014630B1034A044BCA
:100DC000013BFDD19142FAD870477047A1860100DE
:100DD000A086010000B583B058B948238DF80730CC
:100DE00001220DF107013620044B984703B05DF84E
:100DF00004FBE8238DF80730F2E700BF050D400043
:100E000010B584B0ADF80E00013A0244ADF80C20E4
:100E1000ADF80A10013B1944ADF80810030A8DF82B
:100E200004308DF80500C2F307238DF806308DF8E5
:100E3000072004220DEB02012A20104CA0470022BB
:100E400011461046A0479DF80B308DF804309DF8F0
:100E50000A308DF805309DF809308DF806309DF880
:100E600008308DF8073004220DEB02012B20A0473B
:100E7000002211461046A04704B010BD050D4000E9
:100E800008B5002211462920014B984708BD00BF34
:100E9000050D400010B4C0F30744C0F30721064B12
:100EA00003F570721C705970987003339342F9D136
:100EB0005DF8044B704700BFEC0B402010B584B0C8
:100EC000ADF80600ADF80410030A8DF80C30C0B27E
:100ED0008DF80D008DF80E308DF80F00042203A957
:100EE0002A200E4CA047002211461046A0479DF82C
:100EF00005208DF80C209DF804308DF80D308DF80C
:100F00000E208DF80F30042203A92B20A0470022C9
:100F100011461046A04704B010BD00BF050D4000AB
:100F20002DE9F04387B08146032706AE46F8087DD9
:100F30005D4D28465D4B9847002400945C4B3A4633
:100F400031462846DFF89881C04722463946284670
:100F5000584B984731462846574B98470120286000
:100F6000686122462146554EB047C820544DA847D7
:100F7000224621461120B047C820A84781238DF87A
:100F80000A308DF80B4010264FF001084B4F2546D4
:100F900042460DF10A01FB20B8479DF80A300133A3
:100FA0008DF80A300395039BFE2B05D8039B013374
:100FB0000393039BFE2BF9D92A462946D320B84731
:100FC0000620404B984742460DF1090136483E4BFA
:100FD00098470395039BFE2B05D8039B013303938E
:100FE000039BFE2BF9D99DF80930B3401C434246C0
:100FF0000DF10B01FB20B8470395039A40F6FE73F1
:101000009A4206D81A46039B01330393039B9342EB
:10101000F9D9083E16F1080FBAD149F288439C422B
:1010200003D0012007B0BDE8F08306AD482305F8E2
:10103000013D012229463620204EB0476420204C35
:10104000A04704238DF8173001222946CF20B0474E
:101050006420A04706238DF81730012229463A2044
:10106000B0476420A047002211461320B0476420F7
:10107000A047164B98476420A0470020144B984780
:101080006420A047B9F80430B9F8002000210846D0
:10109000104CA047D9F808000F4B9847002108468C
:1010A0000E4B98470020BDE70080004099074000A4
:1010B000002D3101C51740006D084000050D4000AE
:1010C000B90D4000A5134000D3084000810E400038
:1010D000D50D4000010E4000950E4000BD0E4000B1
:1010E000ED0740002DE9F04184B003900291019298
:1010F00004AA42F8103D134601AA02A903A8224CF3
:10110000A047BDF80C00BDF80810009B01335B1A26
:10111000019A0132121A9BB292B21C4CA0471C4B8E
:1011200098470399019D691A009D0135029BED1AAC
:1011300001FB0555174BA3FB05231B0A63B15C1E7E
:10114000DFF858804FF47077134E39464046B04769
:10115000013CB4F1FF3FF8D10E49A1FB0531090A6A
:1011600001EB8101A5EB811101EB41010B480A4B19
:1011700098474FF4F0734FF4A07200210846034CD7
:10118000A04704B0BDE8F081710C4000010E4000A2
:10119000C90C4000CDCCCCCC790D4000EC0B4020EC
:1011A00010B584B003900291013A10440190013BC4
:1011B000194404AB43F8101D01AA02A903A8134C5B
:1011C000A047BDF80C00BDF80810009B01335B1A66
:1011D000019A0132121A9BB292B20D4CA0470399A8
:1011E000019A511A029A009B9A1A02FB01F202EB31
:1011F000420206992C20074B98474FF4F0734FF4A6
:10120000A07200210846A04704B010BD710C400038
:10121000010E4000050D4000016370474264B1F1CA
:10122000C05F3AD013D8B1F1006F25D0B1F1805F23
:101230000AD1036F13430367436F416F0B4023EAE7
:1012400002034367426070470029FBD17047B1F148
:10125000205F21D009D8B1F1005FF3D1036F1343B0
:101260000367436F13434367ECE7B1F1405F13D06B
:10127000B1F1605F10D0E5E710B4016F046FD343A4
:1012800021401C4619400167436F416F0B402340CA
:10129000436742605DF8044B7047036F016F0B407A
:1012A00023EA02030367436F13434367CAE74164BA
:1012B00012F0010F0DD1016612F00A0F0BD001627E
:1012C00012F0020F09D112F0080F08D0C0F88410F4
:1012D00005E04166F0E74162F2E7C0F88010416145
:1012E0000160704710B4019C41644CB901664BB178
:1012F00001654AB94163016101605DF8044B7047C3
:101300004166F4E74165F4E70163F4E770B582B044
:10131000054616461C46B1F1005F14D00AD9B1F15A
:10132000405F24D0B1F1605F21D0B1F1205F17D0D0
:1013300000201AE0B1F1805F05D0B1F1C05F02D0AA
:10134000B1F1006FF4D132462846114B984714F0A2
:10135000010F02D12E66012007E06E66012004E035
:101360001A4631460B4B9847012002B070BD04F07D
:1013700001030093C4F38003B1F1605F14BF002246
:10138000012231462846044CA0470120EDE700BF6A
:101390001D124000AF124000E5124000C06C7047C3
:1013A000806C7047054B03EB50135B0200F01F008D
:1013B000012202FA00F01863704700BF07072000FF
:1013C000054B03EB50135B0200F01F00012202FAF1
:1013D00000F05863704700BF0707200070B582B067
:1013E0000D46464C04EB5014640201F0F043B3F197
:1013F000005F59D00AD8B3F1805F2FD0B3F1C05F3E
:101400003FD0B3F1006F16D0002012E0B3F1405F7F
:101410005DD0B3F1605F5AD0B3F1205FF4D100F03A
:101420001F0101262A4606FA01F12046344B98474F
:10143000304602B070BD00F01F00012686403246E3
:101440004FF0006120462F4B984715F0010F02D155
:1014500026660120EDE766660120EAE700F01F003E
:101460000126864032464FF080512046254B984752
:1014700015F0010F02D126660120DAE76666012029
:10148000D7E700F01F000126864032464FF0C051DA
:1014900020461C4B984715F0010F02D1266601200B
:1014A000C7E766660120C4E700F01F0001268640FA
:1014B00032464FF000512046124B984715F0010F6D
:1014C00002D126660120B4E766660120B1E705F087
:1014D000605200F01F01012605EA06030093C5F3E0
:1014E0008003B2F1605F14BF0022012206FA01F10D
:1014F0002046054CA04730469BE700BF0707200069
:10150000AF1240001D124000E51240002DE9F041ED
:10151000044688460E4B9847054620460D4B984793
:10152000054013D00C4C04F1600603E0B4420DD02A
:1015300010345DB120684045F8D161682942F5D08A
:10154000E3689847636825EA0305EFE7BDE8F081A3
:101550009D134000A1134000AC0F402008B50A21A4
:101560000148024B984708BD000E0E400D15400083
:1015700008B50B210148024B984708BD00100E40EA
:101580000D15400008B50C210148024B984708BDD5
:1015900000120E400D15400008B510210148024B05
:1015A000984708BD00140E400D15400008B51121E4
:1015B0000148024B984708BD00160E400D1540002B
:1015C000032811D0042812D002280CBF4FF48071D8
:1015D0000021084A136B23F440730B431363936E8B
:1015E00013F0080FFBD070474FF44071F1E74FF450
:1015F0000071EEE700060E40174A136B23F07003EC
:1016000018431063936E13F0080F0AD14FF4805300
:1016100011498A6E12F0080F03D1013BF9D1012064
:1016200070470D4A136B23F0030343F00203136367
:10163000936E13F0080F0AD14FF4805306498A6E57
:1016400012F0080F05D1013BF9D1012070470020AD
:1016500070470020704700BF00060E40A0B90E483A
:10166000036A090289B20D4A1A400D4B134319430C
:1016700001620246936E13F0010FFBD0064A116A15
:10168000084B0B431362704703490B6A064A1A4022
:10169000064B13430B62704700060E40FCFFC8FF69
:1016A0000100370000003701FCFFC8FE02003701CF
:1016B000024B986E00F48030704700BF00060E4069
:1016C0004FF00052014B9A62704700BF00060E4077
:1016D000024B986E00F00200704700BF00060E40FB
:1016E00000F07F00054BC3F80C01D3F80C2142F049
:1016F0001022C3F80C210020704700BF00060E40E6
:1017000008B5074B984203D0064B984204D008BD59
:101710001520054B984708BD2A20034B9847F6E74C
:101720000080004000800540E1164000436823F43B
:10173000702343604368090401F470211943416038
:101740007047436823F07F434360436843EA016185
:101750004160704730B443F69924056915F0020FD3
:1017600003D1013CF9D101200CE0446814F0020FD0
:1017700006D0120402F4702211430BB141F08071C3
:10178000C160002030BC704732B900EB8100036BB0
:1017900023F001030363704700EB8100036B43F008
:1017A00001030363704732B900EB8100036B23F040
:1017B00002030363704700EB8100036B43F00203F5
:1017C00003637047042A03D06AB1082A16D0704711
:1017D00000EB8100036B23F008030363036B43F00A
:1017E00004030363704700EB8100036B23F00803DD
:1017F0000363036B23F004030363704700EB810072
:10180000036B43F008030363E1E700EB81010B6B1B
:1018100023F0F0030B630B6B1A430A637047431EFC
:101820001944B1FBF0F0431EFE2B94BF00B24FF001
:10183000FF3070477AB110B4144600EB81010B6B96
:1018400023F47F430B630A6B42EA04220A630020FD
:101850005DF8044B70474FF0FF30704710B400EB59
:101860008101086B80B208630C6B44EA036343EAAE
:1018700002430B635DF8044B70470000284B99420C
:101880004BD8A3F57A5399422DD910B4254CA4FB1B
:101890000234A40B033C244B0B449B00B2FBF3F239
:1018A000033AFF2C1DD9002101316408FF2C01D916
:1018B0000629F9D9FF2A07D9062905D80131520886
:1018C000FF2A01D90629F9D913029BB2090401F4B0
:1018D000E0210B43E4B22343036100205DF8044B95
:1018E00070470021E6E74900B2FBF1F2033AFF2A14
:1018F00011D9002301335208FF2A01D9062BF9D947
:10190000110289B21B0403F4E0230B43D2B21A4341
:101910000261002070470023F2E70120704700BFFA
:10192000801A0600F11976050012FD3F08B54FF048
:10193000FF328262026A80220260026B0822026029
:1019400020220260042202600A684968034B98471B
:10195000012814BF0020012008BD00BF7D184000F1
:10196000CA68002A4CD070B48C68002646604B6868
:101970001B0203F4407343F480530D7C2D0405F4E3
:10198000FE052B434360C6604D685DB10B78012DA9
:1019900002DD4E7846EA0323022D04DD897841EA10
:1019A000032300E00023C36001230360022512E04B
:1019B000056013F0020F1BD0036B2370036A13F052
:1019C000010FFBD0036A002070BC7047036B04F862
:1019D000013B013AF2D0036A13F4807F14D147F23D
:1019E0003051012AE4D013F0020FEFD1002AE5D0E4
:1019F000036A13F4807F05D10139F2D10920E3E7AE
:101A0000012070470520DFE70520DDE7CB68002BCC
:101A100043D070B48C68002646600A7C120402F43D
:101A2000FE024D682D0205F440752A434260C660EF
:101A30004D685DB10A78012D02DD4E7846EA02223A
:101A4000022D04DD897841EA022200E00022C26012
:101A500004E014F8012B4263013B0FD0026A12F438
:101A6000807F1ED112F0040FF3D1026A12F4807F3E
:101A700015D112F0040FECD1002BF6D1036A13F448
:101A8000807F11D113F0040FF8D002230360036AA2
:101A900013F0010FFBD0002004E001207047052067
:101AA00000E0052070BC70470520FBE7436913F098
:101AB000020F02D0C16100207047012070474369C6
:101AC00013F0010F03D083690B70002070470120D1
:101AD000704710B40B01934214D9C9004B0803EBB3
:101AE000C202B2FBF1F2D3085C1E4FF6FE718C42CB
:101AF00001D9012017E0416841F4002141600CE068
:101B0000012010E0590801EBC202B2FBF3F2D30846
:101B10005C1E4FF6FE718C42F2D8120402F4E022F1
:101B20001A43026200205DF8044B7047084BC0F86E
:101B3000E4300023436043628362882303602423EC
:101B400003604FF4807303604FF400230360704719
:101B50000041535570B505460C4616460F4B984745
:101B600000220F4B1A60A4B13246216828460D4B63
:101B70009847024678B96368A1680B4321690B4313
:101B8000E1680B4306490B6069680B436B601046C4
:101B900070BD0122FBE70122F9E700BF2D1B4000C9
:101BA0001C104020D31A40004023036070471023CC
:101BB00003607047436913F0020F04D0C1F30801BA
:101BC000C1610020704701207047436913F0010F85
:101BD00005D08369C3F308030B6000207047012020
:101BE0007047FEE700B583B0254B264A9A4210D0D5
:101BF000254B234A9A420CD2013B9B1A23F0030344
:101C0000043313441F4951F8040B42F8040B9A4261
:101C1000F9D11E4B1E4A9A420AD2013B9B1A23F06D
:101C2000030304331344002142F8041B9342FBD105
:101C3000184A194B23F07F039360EFF31083B3FA34
:101C400083F35B09019372B6BFF35F8F0022134BDE
:101C50001A700199124A136843F470031360BFF3BA
:101C60004F8FBFF36F8F29B101220C4B1A70BFF356
:101C70005F8F62B60B4B98470B4B9847FEE700BF50
:101C800000004020CC3C4500D00B40209C10402060
:101C9000D00B402000ED00E0000040000A00402092
:101CA00088ED00E089324000612240003B4B1B6B15
:101CB00003F00303012B1DD083B1022B36D0374B29
:101CC0001B6B03F07003702B5FD0344B1A6B3449DD
:101CD000C2F302120B68D3400B607047314B5B6953
:101CE00013F0800F14BF4FF400424FF4FA422C4B14
:101CF0001A60E4E7294B1B6A13F0807F03D02A4A5D
:101D0000274B1A60DBE7294A254B1A60234B1B6AD5
:101D100003F07003102B05D0202BD0D1224A204B8A
:101D20001A60CCE7224A1E4B1A60C8E71B4B1B6A9D
:101D300013F0807F16D01C4A194B1A60174B1B6B8F
:101D400003F00303022BBAD1144A916A926A144831
:101D5000C1F30A41036801FB0333D2B2B3FBF2F3D0
:101D60000360ACE7114A0E4B1A600C4B1B6A03F080
:101D70007003102B05D0202BE0D10B4A084B1A60C2
:101D8000DCE70B4A064B1A60D8E7054A1368094995
:101D9000A1FB03135B081360704700BF00060E40F1
:101DA0000C00402010180E40001BB70000093D0039
:101DB00000127A00ABAAAAAA164B984213D9164B66
:101DC000984215D9154B984216D9154B984217D9F8
:101DD000144B984218D9144B984294BF134A144A92
:101DE000144B1A6070474FF08062124B1A607047B4
:101DF000114A104B1A607047104A0E4B1A60704718
:101E00000F4A0C4B1A6070474FF00422094B1A60BE
:101E1000704700BFBFF35E017FE7BD023FDB1C04DC
:101E2000FFCE7B05BFC2DA067FB639080005000485
:101E300000060004000C0E40000100040002000433
:101E4000000300040A4B1B6853B1094B1B681A18A6
:101E50000849914208DB1046054A10601846704751
:101E6000054A034B1A60F0E74FF0FF30704700BFA0
:101E700020104020FCFF4520A03240204FF0FF30D2
:101E800070474FF400534B600020704701207047AB
:101E900000207047F0B583B005460C46002301933F
:101EA0002A4B984213D02A4B984218D0294B98427B
:101EB0001DD0294B9D4222D0284B9D4227D0284B34
:101EC0009D422ED0274B9D4235D003B0F0BD1F461A
:101ED000254E21463846B0470028FAD1E9E71F468B
:101EE000214E21463846B0470028FAD1E4E71F4684
:101EF0001D4E21463846B0470028FAD1DFE71F467D
:101F0000194E21463846B0470028FAD1DAE71E4676
:101F1000164D01A93046A8470028FAD1019B23702D
:101F2000D3E71E46114D01A93046A8470028FAD133
:101F3000019B2370C9E71E460C4D01A93046A847F6
:101F40000028FAD1019B2370BFE700BF00080E40B4
:101F5000000A0E40001A0E40001C0E4000400240D5
:101F60000080024000C00240BF1A4000CB1B40006E
:101F700070B50C462A4B984213D02A4B984219D080
:101F8000294B98421FD0294B984225D0284B984284
:101F90002BD0284B984231D0274B984237D0002085
:101FA00070BD1E46254D21463046A8470028FAD16F
:101FB000012070BD1E46214D21463046A84700280D
:101FC000FAD1012070BD1E461C4D21463046A8475F
:101FD0000028FAD1012070BD1E46184D214630461A
:101FE000A8470028FAD1012070BD1E46144D214695
:101FF0003046A8470028FAD1012070BD1E46104D7A
:1020000021463046A8470028FAD1012070BD1E465F
:102010000B4D21463046A8470028FAD1012070BD5B
:1020200000080E40000A0E40001A0E40001C0E4030
:10203000004002400080024000C00240AD1A400053
:10204000B51B4000074A084B53630848906342633E
:102050000749816348638B635963064999634B63FE
:102060008A637047E0014020680140202C01402035
:10207000A4014020F00040202DE9F04782B01F4627
:10208000DDF828800B780BB30546164618460C463B
:10209000DFF8409003E014F8013F1846B3B16A7AC4
:1020A0009A42F8D32B7AC01A6B6803EBC00ADAF8AD
:1020B00004108B684A680968009139463046C84761
:1020C000DAF804305B6843441E44E4E702B0BDE83C
:1020D000F08700BFA111400010B50648064B984795
:1020E00040F2DF1340F23F1200210846034CA047A4
:1020F00010BD00BFFCFCFC00950E4000E510400048
:10210000536883422AD810B514692344984224D8CE
:1021100093688B4221D8D068034499421DD8144655
:1021200013685B421360002B0BDD0D480D4B984785
:102130006068A168E36822690B4402440A4CA04726
:1021400010BD4FF47C40074B98476068A168E36876
:1021500022690B440244044CA04710BD704700BFE5
:1021600000A4FC00950E4000E51040002DE9F04F62
:10217000D1B00590D22200211BA82D4B98474FF0DB
:10218000000ADFF8D4B00FE006A91BA8294B984736
:102190000AF1010A5FFA8AFA0598274B9847BAF1C3
:1021A000020F35D8002833D018A90598D847002841
:1021B000F2D1BDF8641001EB8106C6F39316C6F5A3
:1021C000A076BDF86230C3EB0317C7F3D3179DF8B1
:1021D0006020039702969DF86100019000911749D5
:1021E00006A8174CA047174B1B68002BCCDD164DDB
:1021F0000024DFF86890DFF84C8055F8042F39464A
:102200003046C8470134D8F80030A342F5DCBBE7BC
:10221000BAF1000F02D151B0BDE8F08F1BA80B4BF3
:10222000984702461BA90A480A4B9847F3E700BFA4
:1022300071384000353B40006D054000C039450015
:10224000E93A40001C024020CC004020413C4000C4
:1022500000800240C1064000DD0540000121400031
:102260002DE9F04FABB0864B9847864B9847864890
:102270004FF4A07303604FF4F0734360834B8360AB
:10228000C360834B9847834FB847834C0AAB94E8AD
:10229000070003C31A8019AD04F10C060FCE0FC559
:1022A0000FCE0FC533682B6007AB04F1300207CAAD
:1022B00003C31A7010AD3C340FCC0FC50FCC0FC543
:1022C00023682B7000250F95744B0E934A268DF8CA
:1022D0003C60DFF84892CDF834901320DFF840A23C
:1022E000D0476F4C0DA920466E4B984702233246CB
:1022F000214622A86C4CA0472A46062122A86B4CF6
:10230000A0470122014622A8694EB0476948DFF87C
:102310001482C0472A46072122A8A047202201464E
:1023200022A8B0472A46072122A8A047411C102214
:1023300089B222A8B0472A46072122A8A047811CBB
:102340004B2289B222A8B0472A46072122A8A047DB
:10235000C11C842289B222A8B0472A46082122A89B
:10236000A0470AAA014622A8DFF8BCB1D8472A46EE
:10237000092122A8A04719AA014622A8D8472A461F
:102380002E2122A8A04707AA014622A8D8472A46FC
:10239000382122A8A04710AA014622A8D8472A46D9
:1023A000062122A8A047811C012289B222A8B04799
:1023B000414C424B1C60424A424B1A60424A434BDA
:1023C0001A604FF4E1331993C0231A934FF400635A
:1023D0001B931C951D950E20D0474A4619A92046EF
:1023E0003B4B984720463B4B984720463A4B9847F3
:1023F0003A4E336829469868394CA04733682946D5
:102400005868A0473748384B9847384B009381238A
:1024100040F23F1232212846354CA0473548C0478C
:10242000B847354B98470446344B1A69936852684D
:102430000121009132493348334EB0470022002336
:10244000CDE90223CDE90423304FEBE022A8304B45
:102450009847ECE02F4919A82F4DA847274BDA6978
:1024600093685268012100915C33143219A9254800
:10247000254DA84700220023CDE904230025D1E003
:102480004D064000B509400064104020FCFCFC00F3
:10249000210F4000D92040003C8E4000801A0600E9
:1024A000008001402D194000D50140006D0440001E
:1024B00025054000D82832000080024060104020EE
:1024C000711F40005C104020951E400058104020B5
:1024D000551B4000A91B4000AF1B400020024020BC
:1024E0004939400074394500D9324000145743003F
:1024F000A11140006BAF030345204000D0004020F5
:10250000683945009C8E4000792040006D054000F0
:102510006D21400098394500E93A400080D1F0082B
:10252000E116400001004020AD044000E26A2B4962
:1025300019A8DFF8C4A0D047F26950689168D36841
:1025400012690B440244D847F269936852684FF00D
:10255000010BCDF800B01433143219A94846DFF846
:102560009480C047226A1E4919A8D047F26993682F
:102570005268CDF800B03833143219A94846C04724
:10258000226AE36A1A4402FA0BF2164919A8D047E4
:10259000F26993685268CDF800B05C33143219A91F
:1025A0004846C0473EE001251D60236AE26A1344A5
:1025B0000D4A02FB03F3C3EB03139B001946DA1722
:1025C000CDE90412094BDA6950689168D368126941
:1025D0000B440244064EB04724E000BFA839450032
:1025E000B03945009839450080D1F008D00040202E
:1025F000E510400079204000E93A4000A24B9B687A
:102600001A68002AC0F27A81DDE90223013243F11F
:102610000003CDE90223DDE90401994208BF90429D
:10262000FFF418AF22A8B84700287FF40FAF002DA1
:10263000E4D1954B9B681A68002AB4DB924B1B6867
:102640001B68002B07DD0123009314231A46214643
:102650008E488F4EB0478C4B5B681A68002A5FDD4E
:102660004FF0FF321A60646B874B1B681B68002BAE
:1026700056DD8848884B9847834B1A6850689168A4
:10268000D36812690B440244844EB047012300937F
:1026900014231A4621467D487D4EB04794F8306099
:1026A000794B1A69936852680121009114331432EE
:1026B0007B487C49012E18BF01467448744EB047D0
:1026C00094F831E0704E726993685268DFF8BC91FB
:1026D0004FF0010ACDF800A014331432704871494C
:1026E000D64518BF01464846DFF8A481C047A26A14
:1026F0006D4919A86D4B9847B26950689168D368C5
:1027000012690B440244DFF894B1D847B269936868
:102710005268CDF800A01433143219A94846C047B6
:10272000594BDB681A68002A7FF77CAF4FF0FF3205
:102730001A60A46B544B1B681B68002B7FF772AFA9
:102740005448554B9847DFF84081D8F8002050682E
:102750009168D36812690B440244504EB04701237C
:10276000009314231A4621464848DFF82491C847AD
:10277000D8F8102050689168D36812690B4402445D
:10278000B04794F830E04646D8F810209368526875
:10279000012100911433143245484649BEF1010F1E
:1027A00018BF01463948C846C847726950689168E1
:1027B000D36812690B440244384EB04794F831E0B4
:1027C000314E726993685268DFF8C0904FF0010A89
:1027D000CDF800A01433143237483849D64518BF15
:1027E00001464846C047A26A2F4910A82F4B984778
:1027F000B26950689168D36812690B440244DFF8EB
:102800009CB0D847B26993685268CDF800A01433E1
:1028100014322B494846C047B26993685268CDF8D4
:1028200000A03833143210A94846C04794F830301D
:1028300053453FF47BAEE26A224919A8DFF86CA049
:10284000D047114EF26950689168D36812690B4401
:102850000244DFF84880C047F26993685268DFF8A5
:102860002C904FF0010BCDF800B01433143219A99D
:102870004846DFF81C80C047226A134919A8D04790
:10288000F2699368526821E0D00040209C8E40009D
:1028900079204000FCFCFC00950E4000E510400053
:1028A0007039450068394500BC394500E93A4000B7
:1028B0005C394500543945006C39450064394500A0
:1028C000A0394500A8394500B0394500CDF800B021
:1028D0003833143219A94846C047226AE36A1A44B9
:1028E000084919A8D047F26993685268CDF800B03A
:1028F0005C33143219A94846C04793E601221A6096
:1029000082E600BFB839450081F0004102E000BF17
:1029100083F0004330B54FEA41044FEA430594EA9F
:10292000050F08BF90EA020F1FBF54EA000C55EADA
:10293000020C7FEA645C7FEA655C00F0E2804FEAAB
:102940005454D4EB5555B8BF6D420CDD2C4480EA8D
:10295000020281EA030382EA000083EA010180EABD
:10296000020281EA0303362D88BF30BD11F0004F0B
:102970004FEA01314FF4801C4CEA113102D0404241
:1029800061EB410113F0004F4FEA03334CEA13337C
:1029900002D0524263EB430394EA050F00F0A78094
:1029A000A4F10104D5F1200E0DDB02FA0EFC22FA8F
:1029B00005F2801841F1000103FA0EF2801843FA83
:1029C00005F359410EE0A5F120050EF1200E012A74
:1029D00003FA0EFC28BF4CF0020C43FA05F3C018B2
:1029E00051EBE37101F0004507D54FF0000EDCF12B
:1029F000000C7EEB00006EEB0101B1F5801F1BD3D4
:102A0000B1F5001F0CD349085FEA30004FEA3C0CD7
:102A100004F101044FEA445212F5800F80F09A80CD
:102A2000BCF1004F08BF5FEA500C50F1000041EBD1
:102A3000045141EA050130BD5FEA4C0C404141EBD5
:102A4000010111F4801FA4F10104E9D191F0000FFC
:102A500004BF01460020B1FA81F308BF2033A3F17F
:102A60000B03B3F120020CDA0C3208DD02F1140C76
:102A7000C2F10C0201FA0CF021FA02F10CE002F1B1
:102A80001402D8BFC2F1200C01FA02F120FA0CFCAA
:102A9000DCBF41EA0C019040E41AA2BF01EB0451F3
:102AA000294330BD6FEA04041F3C1CDA0C340EDCF1
:102AB00004F11404C4F1200220FA04F001FA02F334
:102AC00040EA030021FA04F345EA030130BDC4F1F2
:102AD0000C04C4F1200220FA02F001FA04F340EAE7
:102AE0000300294630BD21FA04F0294630BD94F098
:102AF000000F83F4801306BF81F480110134013D7F
:102B00004EE77FEA645C18BF7FEA655C29D094EAEF
:102B1000050F08BF90EA020F05D054EA000C04BF6D
:102B20001946104630BD91EA030F1EBF0021002058
:102B300030BD5FEA545C05D14000494128BF41F0F7
:102B4000004130BD14F580043CBF01F5801130BD5B
:102B500001F0004545F0FE4141F470014FF00000E6
:102B600030BD7FEA645C1ABF194610467FEA655C97
:102B70001CBF0B46024650EA013406BF52EA033539
:102B800091EA030F41F4002130BD00BF90F0000F27
:102B900004BF0021704730B54FF4806404F1320463
:102BA0004FF000054FF0000150E700BF90F0000F1C
:102BB00004BF0021704730B54FF4806404F1320443
:102BC00010F0004548BF40424FF000013EE700BF13
:102BD00042004FEAE2014FEA31014FEA02701FBFA3
:102BE00012F07F4393F07F4F81F06051704792F075
:102BF000000F14BF93F07F4F704730B54FF46074EF
:102C000001F0004521F0004120E700BF50EA010239
:102C100008BF704730B54FF000050AE050EA0102E6
:102C200008BF704730B511F0004502D5404261EB56
:102C300041014FF4806404F132045FEA915C3FF497
:102C4000DCAE4FF003025FEADC0C18BF03325FEA30
:102C5000DC0C18BF033202EBDC02C2F1200300FAE5
:102C600003FC20FA02F001FA03FE40EA0E0021FA0A
:102C700002F11444C1E600BF70B54FF0FF0C4CF4F4
:102C8000E06C1CEA11541DBF1CEA135594EA0C0FAA
:102C900095EA0C0F00F0DEF82C4481EA030621EAE5
:102CA0004C5123EA4C5350EA013518BF52EA033520
:102CB00041F4801143F4801338D0A0FB02CE4FF0D2
:102CC0000005E1FB02E506F00042E0FB03E54FF002
:102CD0000006E1FB03569CF0000F18BF4EF0010EFA
:102CE000A4F1FF04B6F5007F64F5407404D25FEAF6
:102CF0004E0E6D4146EB060642EAC62141EA5551A9
:102D00004FEAC52040EA5E504FEACE2EB4F1FD0CEA
:102D100088BFBCF5E06F1ED8BEF1004F08BF5FEA68
:102D2000500E50F1000041EB045170BD06F000461A
:102D300046EA010140EA020081EA0301B4EB5C04C7
:102D4000C2BFD4EB0C0541EA045170BD41F48011BF
:102D50004FF0000E013C00F3AB8014F1360FDEBFE4
:102D6000002001F0004170BDC4F10004203C35DAC0
:102D70000C341BDC04F11404C4F1200500FA05F343
:102D800020FA04F001FA05F240EA020001F00042E4
:102D900021F0004110EBD37021FA04F642EB06015A
:102DA0005EEA430E08BF20EAD37070BDC4F10C0484
:102DB000C4F1200500FA04F320FA05F001FA04F248
:102DC00040EA020001F0004110EBD37041F1000134
:102DD0005EEA430E08BF20EAD37070BDC4F120053F
:102DE00000FA05F24EEA020E20FA04F301FA05F2A7
:102DF00043EA020321FA04F001F0004121FA04F24F
:102E000020EA020000EBD3705EEA430E08BF20EA1E
:102E1000D37070BD94F0000F0FD101F00046400058
:102E200041EB010111F4801F08BF013CF7D041EADA
:102E3000060195F0000F18BF704703F000465200DE
:102E400043EB030313F4801F08BF013DF7D043EAAF
:102E50000603704794EA0C0F0CEA135518BF95EA65
:102E60000C0F0CD050EA410618BF52EA4306D1D1EC
:102E700081EA030101F000414FF0000070BD50EA0B
:102E8000410606BF1046194652EA430619D094EA95
:102E90000C0F02D150EA013613D195EA0C0F05D17F
:102EA00052EA03361CBF104619460AD181EA0301D3
:102EB00001F0004141F0FE4141F470014FF000008B
:102EC00070BD41F0FE4141F4780170BD70B54FF026
:102ED000FF0C4CF4E06C1CEA11541DBF1CEA1355A6
:102EE00094EA0C0F95EA0C0F00F0A7F8A4EB050488
:102EF00081EA030E52EA03354FEA013100F088807F
:102F00004FEA03334FF0805545EA131343EA126347
:102F10004FEA022245EA111545EA10654FEA0026FC
:102F20000EF000419D4208BF964244F1FD0404F5B5
:102F3000407402D25B084FEA3202B61A65EB030511
:102F40005B084FEA32024FF480104FF4002CB6EBCE
:102F5000020E75EB030E22BFB61A754640EA0C004E
:102F60005B084FEA3202B6EB020E75EB030E22BF8E
:102F7000B61A754640EA5C005B084FEA3202B6EBCF
:102F8000020E75EB030E22BFB61A754640EA9C008E
:102F90005B084FEA3202B6EB020E75EB030E22BF5E
:102FA000B61A754640EADC0055EA060E18D04FEA1C
:102FB000051545EA16754FEA06164FEAC30343EABC
:102FC00052734FEAC2025FEA1C1CC0D111F4801F89
:102FD0000BD141EA00014FF000004FF0004CB6E782
:102FE00011F4801F04BF01430020B4F1FD0C88BF21
:102FF000BCF5E06F3FF6AFAEB5EB030C04BFB6EB2C
:10300000020C5FEA500C50F1000041EB045170BD1E
:103010000EF0004E4EEA113114EB5C04C2BFD4EB4B
:103020000C0541EA045170BD41F480114FF0000ECF
:10303000013C90E645EA060E8DE60CEA135594EA4B
:103040000C0F08BF95EA0C0F3FF43BAF94EA0C0F4E
:103050000AD150EA01347FF434AF95EA0C0F7FF4C3
:1030600025AF104619462CE795EA0C0F06D152EA17
:1030700003353FF4FDAE1046194622E750EA4106FB
:1030800018BF52EA43067FF4C5AE50EA41047FF40C
:103090000DAF52EA43057FF4EBAE12E74FF0FF3C71
:1030A00006E000BF4FF0010C02E000BF4FF0010C42
:1030B0004DF804CD4FEA410C7FEA6C5C4FEA430CBB
:1030C00018BF7FEA6C5C1BD001B050EA410C0CBF0A
:1030D00052EA430C91EA030F02BF90EA020F00206C
:1030E000704710F1000F91EA030F58BF994208BFD3
:1030F00090422CBFD8176FEAE37040F00100704790
:103100004FEA410C7FEA6C5C02D150EA013C07D1E6
:103110004FEA430C7FEA6C5CD6D152EA033CD3D031
:103120005DF8040B704700BF8446104662468C462B
:103130001946634600E000BF01B5FFF7B7FF00285E
:1031400048BF10F1000F01BD4DF808EDFFF7F4FF87
:103150000CBF012000205DF808FB00BF4DF808ED12
:10316000FFF7EAFF34BF012000205DF808FB00BF35
:103170004DF808EDFFF7E0FF94BF012000205DF857
:1031800008FB00BF4DF808EDFFF7CEFF94BF01200C
:1031900000205DF808FB00BF4DF808EDFFF7C4FF05
:1031A00034BF012000205DF808FB00BF4FEA410C4E
:1031B0007FEA6C5C02D150EA013C0AD14FEA430C31
:1031C0007FEA6C5C02D152EA033C02D14FF000006E
:1031D00070474FF0010070474FEA410212F50012AC
:1031E00015D211D56FF47873B3EB625212D94FEA4E
:1031F000C12343F0004343EA505311F0004F23FA38
:1032000002F018BF404270474FF00000704750EA8C
:10321000013005D111F0004008BF6FF00040704749
:103220004FF00000704700BF10B502FB01F100F045
:103230006FF80446D8B150F8042C22F00302043A87
:10324000242A18D8132A14D900231B2A03604360A8
:1032500016D9242A8360C36011BF00F110020361F4
:10326000436100F11802002313605360936020460D
:1032700010BD0246F7E7002100F0FAFA204610BD23
:1032800000F10802EFE700BF70B50F4E0F4D761B3F
:10329000B61018BF002405D0013455F8043B9847F8
:1032A000A642F9D10A4E0B4D761B50F0F9FCB61030
:1032B00018BF002406D0013455F8043B9847A642B5
:1032C000F9D170BD70BD00BFAC3C4500AC3C4500C1
:1032D000B43C4500AC3C45000FB400B5074983B091
:1032E00004AB086853F8042B8168019301F084FF54
:1032F00003B05DF804EB04B0704700BF200240202B
:10330000024B0146186800F003B800BF20024020BD
:103310002DE9F04F01F10B06162E83B0054640F261
:103320009E8036F0070600F1BD80B14200F2BA80FF
:1033300000F0ECFAB6F5FC7FC0F09382730A00F05F
:10334000B880042B00F27981B30903F1390003F14D
:10335000380EC300BF4F3B44A3F108015C68A14293
:1033600006D10CE0002A80F2AA80E468A14206D0CF
:10337000636823F003039A1B0F2AF3DD70463C6950
:10338000DFF8E4E2744500F0AB81636823F00303E7
:103390009A1B0F2A00F39081002AC7F814E0C7F89F
:1033A00010E080F29D80B3F5007F80F06181DB0842
:1033B00003F1010C99107A6857F83C80C4F8088032
:1033C00001238B4007EBCC0113430839E1607B609C
:1033D00047F83C40C8F80C408210012494409C42BD
:1033E00000F28B801C4206D120F0030064001C42D6
:1033F00000F10400FAD007EBC009CC468046DCF8A7
:103400000C309C4507D16DE1002A80F27B81DB689E
:103410009C4500F06781596821F003018A1B0F2A3F
:10342000F2DDD3F80CC0D3F8088000939C1928462D
:1034300046F0010642F001055E60C8F80CC0CCF809
:1034400008807C613C61C4F80CE0C4F808E0656069
:103450005A5000F061FA009B03F108041EE01029A5
:1034600020D800F053FA102618230220794F3B444D
:10347000A3F108025C68944200F03D816368E16852
:10348000A66823F00303234428465A68F16042F0FB
:1034900001028E605A6000F03FFA0834204603B003
:1034A000BDE8F08F00240C2320462B6003B0BDE85C
:1034B000F08F40204FF400734FF03F0E4AE7234453
:1034C000E1685A68A66842F00102F16028468E6001
:1034D0005A6000F021FA0834204603B0BDE8F08FAE
:1034E000234428465A6842F001025A6000F014FA58
:1034F0000834204603B0BDE8F08FBC68636823F051
:103500000308B04504D3A8EB06030F2B00F3858016
:10351000DFF85891504BD9F800201B680132334432
:1035200004EB080A00F0558103F580530F3323F4B0
:103530007F6B2BF00F0B5946284600F0F3F9411C26
:10354000024600F0FC80824500F2F780434B196888
:103550005944196000F04D81D9F8000001301BBFBB
:10356000A2EB0A0A5144C9F80020196012F00701C1
:1035700000F01581C1F10800C1F580510244083105
:1035800002EB0B09C9F30B09A1EB090949462846CF
:103590000193009200F0C6F9431C9DE80C0000F076
:1035A0004381801A484440F001001968BA604944D8
:1035B000BC425060196017D0B8F10F0F40F2FB8089
:1035C0006068A8F10C0222F0070204EB020E00F082
:1035D00001004FF0050C10430F2A6060CEF804C0C4
:1035E000CEF808C000F217811D4BBC681A689142E2
:1035F00088BF19601B4B1A689142626888BF1960C6
:1036000022F003029642A2EB060301D80F2B04DC42
:10361000284600F081F9002440E7A21943F0010395
:1036200046F0010666602846BA60536000F074F9FF
:103630000834204603B0BDE8F08F142B71D9542B09
:1036400000F2A380330B03F16F0003F16E0EC30091
:1036500080E600BF50064020541040202410402037
:103660004C1040205010402058064020580A40205E
:103670005A0A042A5BD9142A00F2AE8002F15C01D6
:10368000C9005B3207EB010C7958ACF1080C8C4592
:1036900000F088804A6822F00302934273D289685E
:1036A0008C45F7D1DCF80C207B68E260C4F808C0D8
:1036B0009460CCF80C408FE6A11946F0010C42F062
:1036C0000106C4F804C0284679613961C1F80CE0EC
:1036D000C1F808E04E60E25000F01EF90834DDE663
:1036E0007B6879E608F1010818F0030F0CF1080C6B
:1036F0007FF485AE2DE0DC68A34208BF02303FF4C2
:103700003EAEBBE619441C464A68DB6854F8086FB5
:1037100042F001024A602846F3609E6000F0FCF827
:10372000BCE603F15C0003F15B0EC30012E69A09EC
:1037300002F13901C9003832A4E7BC4254D0BC6858
:10374000626822F003025DE759F80839994540F0B4
:10375000868010F0030F00F1FF30F5D17B6823EA7B
:1037600004037B6064009C423FF6C7AE002C3FF42C
:10377000C4AE1C4240467FF43EAE64001C4200F1E1
:103780000400FAD037E68C468CE7B3F5AA7F15D84B
:10379000F30B03F1780003F1770EC300DAE54FF481
:1037A0008051EDE67B689210012101FA02F2134389
:1037B0007B60624679E70123536029E740F2545267
:1037C000934222D8B30C03F17D0003F17C0EC300B9
:1037D000C0E503F1100BAEE6542A29D81A0B02F10A
:1037E0006F01C9006E324DE7204B196859441960CA
:1037F000B2E6CAF30B0000287FF4AEAE08EB0B0371
:10380000BA6843F001035360EEE67F204FF47E7305
:103810004FF07E0E9EE504F108012846009303F068
:10382000C7FD009B1968DFE601204FF00009BCE6E8
:10383000B2F5AA7F05D8DA0B02F17801C900773218
:1038400020E740F254518A4205D89A0C02F17D01DA
:10385000C9007C3216E74FF47E717E2212E77B6846
:1038600080E7F00806F1080300E600BF24104020BE
:1038700070B4860746D0541E002A41D0CAB203460F
:1038800002E014F1FF343BD303F8012B9D07F8D17C
:10389000032C2ED9CDB245EA05250F2C45EA054566
:1038A00019D903F110022646103E0F2E42F8105C83
:1038B00042F80C5C42F8085C42F8045C02F1100229
:1038C000F2D8A4F1100222F00F0204F00F0410321B
:1038D000032C13440DD91E462246043A032A46F807
:1038E000045BFAD8221F22F003020432134404F0CE
:1038F00003042CB1C9B21C4403F8011B9C42FBD148
:1039000070BC704714460346C2E700BF014803F08D
:10391000F7BF00BF84104020014803F0F3BF00BF91
:103920008410402038B5074C002305460846236024
:10393000FEF788FA431C00D038BD2368002BFBD06B
:103940002B6038BD9810402000290CBF02220022B5
:103950004FF4806300F000B82DE9F043614C256816
:1039600083B004460F4690461E4615B1AB6B002B44
:1039700064D0B8F1020F06D0B8F1010F00F29F80B9
:10398000002EC0F29C80636ED80734D521462846AD
:1039900003F090FB216B41B104F14003994202D046
:1039A000284603F005FD00232363B4F90C30002200
:1039B000A26162601A063AD423F44A6323F0030337
:1039C000B8F1020FA3811DD001AB6A4621462846FB
:1039D00003F09AFFA3891843A081002E32D1009EE4
:1039E0003046FFF78DFC074600286BD0A38943F0D3
:1039F0008003A38128E0A3899905C7D4A06D03F0B3
:103A00007FFFC3E70025616E002604F1430243F007
:103A100002030120A660CE07A381226022616061BB
:103A200001D498053ED5284603B0BDE8F08321694E
:103A3000284603F0BDFCB4F90C30BDE7284603F07E
:103A400091FB96E7002FCBD0AB6B002B33D0009BC4
:103A5000B4F90C2027609E421CBF42F40062A28190
:103A6000B8F1010F04BF42F00102A28192B212F03C
:103A70000803276166610ED0D1071AD5656E7642BC
:103A8000002315F00105A661A36009D00025284692
:103A900003B0BDE8F083A360656E15F00105F5D1B4
:103AA0009305C0D4A06D03F02DFF284603B0BDE8F8
:103AB000F083A660F0E7284603F054FBC7E74FF019
:103AC000FF35B0E7DDF80090B14504D04846FFF778
:103AD00017FC074620B9B4F90C304FF0FF3592E7D8
:103AE0004E4683E7200240200EB4F0B59CB021ABD7
:103AF0000F4953F8042B019305466FF00044086802
:103B000002954FF402774FF6FF7602A90695ADF8BD
:103B1000147004940794ADF8166000F0FFF8029B4F
:103B200000221A701CB0BDE8F04003B0704700BF1F
:103B300020024020830710B5044610D10268A2F18C
:103B4000013323EA020313F0803F08D150F8042F19
:103B5000A2F1013323EA020313F0803FF6D0037889
:103B60001BB110F8013F002BFBD100F003F82046F9
:103B700010BD00BF80EA0102844612F0030F4FD14E
:103B800011F0030F32D14DF8044D11F0040F51F82C
:103B9000043B0BD0A3F101329A4312F0803F04BFE3
:103BA0004CF8043B51F8043B16D100BF51F8044BCC
:103BB000A3F101329A4312F0803FA4F101320BD1FC
:103BC0004CF8043BA24312F0803F04BF51F8043B81
:103BD0004CF8044BEAD023460CF8013B13F0FF0FDE
:103BE0004FEA3323F8D15DF8044B704711F0010F11
:103BF00006D011F8012B0CF8012B002A08BF7047E2
:103C000011F0020FBFD031F8022B12F0FF0F16BFD8
:103C10002CF8022B8CF8002012F47F4FB3D17047A0
:103C200011F8012B0CF8012B002AF9D1704700BFC5
:103C30000000000000000000000000000000000084
:103C400090F800F06DE9024520F007016FF0000CDC
:103C500010F0070491F820F040F049804FF0000484
:103C60006FF00700D1E9002391F840F000F108005F
:103C700082FA4CF2A4FA8CF283FA4CF3A2FA8CF397
:103C80004BBBD1E9022382FA4CF200F10800A4FAFE
:103C90008CF283FA4CF3A2FA8CF3E3B9D1E9042352
:103CA00082FA4CF200F10800A4FA8CF283FA4CF389
:103CB000A2FA8CF37BB9D1E9062301F1200182FA43
:103CC0004CF200F10800A4FA8CF283FA4CF3A2FA49
:103CD0008CF3002BC6D0002A04BF04301A4612BA57
:103CE000B2FA82F2FDE8024500EBD2007047D1E95A
:103CF000002304F00305C4F100004FEAC50514F0E9
:103D0000040F91F840F00CFA05F562EA05021CBFB9
:103D100063EA050362464FF00004A9E72DE9F04F7E
:103D2000C3B00C460B9192460F930C9003F0D6FD56
:103D300003681A931846FFF783FFA38919901906A1
:103D400003D52369002B01F0038000230DF1C8097E
:103D50001393159314932793269318931B93099306
:103D6000CDF89490C846169317939AF800305446AD
:103D7000E3B1252B02D119E0252B03D014F8013F24
:103D8000002BF9D1A4EB0A0585B1269B279AC8F828
:103D900000A001332A44072BC8F804502792269329
:103DA0007FDC08F10808099B2B4409932378002B3A
:103DB0007FD000231A468DF8773019460D939B4625
:103DC0004FF0FF3063780A9004F1010A0AF1010A0A
:103DD000A3F12000582800F2C183DFE810F0380278
:103DE000BF03BF034002BF03BF03BF03BF03BF0343
:103DF000BF0345020302BF035D006B02BF038602DF
:103E00009D039D039D039D039D039D039D039D03B2
:103E10009D03BF03BF03BF03BF03BF03BF03BF03B4
:103E2000BF03BF03BF0337035703BF035703BF03DA
:103E3000BF03BF03BF039803BF03BF03AD03BF03AB
:103E4000BF03BF03BF03BF035902BF03BF031E036A
:103E5000BF03BF03BF03BF03BF03BF03BF03BF0352
:103E6000BF03BF03C602DB025703570357038B028E
:103E7000DB02BF03BF039002BF039D02CC01B4026B
:103E80000802BF03E101BF037E00BF03BF030D02B1
:103E90000D980F9340420D904BF0040B9AF80030B0
:103EA00094E725AA0B990C9804F0F4FB40B9C84696
:103EB00079E7279B23B10C980B9925AA04F0EAFB1C
:103EC0000B9B9B8913F0400F099B18BF4FF0FF33EA
:103ED0000993099843B0BDE8F08F1BF0200F1193B0
:103EE00040F0DD810F9A1BF0100F134640F06E85F5
:103EF0001BF0400F00F06A8514880432002501236E
:103F00000F9200278DF877700A994A1C00F065829D
:103F10002BF08002079254EA050240F064820029E7
:103F200040F03C84002B40F0D7841BF001030E933B
:103F300000F0048642AE302306F8413D0A9B0E9AFB
:103F40009342B8BF134608930023129317B1089BFE
:103F500001330893079B13F00203109302D0089BD0
:103F600002330893079B13F0840540F00E830D9BEA
:103F7000089AA3EB020BBBF1000F40F30683BBF1E1
:103F8000100F279C269A29DD43462146A846102774
:103F90000C9C0B9D06E0ABF1100BBBF1100F03F175
:103FA000080318DD0132B74826921031072A2791FD
:103FB00083E88100EFDD25AA2946204604F06AFB4C
:103FC00000287FF47DAFABF1100BBBF1100F2799E8
:103FD000269A4B46E6DC45460C4698460132A94BEC
:103FE00026925C44072A279488E8080800F39884FE
:103FF0009DF8777008F1080877B1269B01330134EA
:104000000DF177010122072B2794269388E80600FB
:1040100000F3DB8308F10808109B6BB1269B01338A
:1040200002341EA90222072B2794269388E8060053
:1040300000F3D68308F10808802D00F015830A9B51
:104040000E9A9F1A002F36DD102F269B8E4D27DDEE
:1040500042462146B0464FF0100B2E460C9C0B9D5D
:1040600004E0103F102F02F1080215DD013310317A
:10407000072B2791269382E84008F2DD25AA2946DE
:10408000204604F007FB00287FF41AAF103F102FE2
:104090002799269B4A46E9DC35460C46464690461B
:1040A00001333C44072B2794269388E8A00000F3B3
:1040B000818308F10808079BDF0500F16882269BD1
:1040C0000E99C8F8006001330C44072B2794C8F8F8
:1040D0000410269300F34D8308F10808079B5B0743
:1040E0003AD50D9B089A9D1A002D35DD102D269B83
:1040F00020DD10260C9FDDF82CB004E0103D102DC3
:1041000008F1080816DD01335E4A26931034072BA8
:10411000279488E84400F1DD25AA5946384604F082
:10412000B9FA00287FF4CCAE103D102D279C269BB9
:10413000C846E8DC0133534A26932C44072B2794C6
:1041400088E8240008DD25AA0B990C9804F0A2FA4F
:1041500000287FF4B5AE279C099B0D9A08998A42E6
:10416000ACBF9B185B180993002C40F00D83002313
:104170002693C846F9E511931BF0200340F0E38134
:104180001BF0100240F02E841BF0400300F02A8444
:104190000F9913460A4604320C880F920025B0E6A8
:1041A0000F9A1193166800248DF87740151D002E84
:1041B00000F0A7860A9A531C00F009862146304673
:1041C00003F036FC002800F0E186831B0E930A946E
:1041D0000F95CDF81CB023EAE373089312949DF871
:1041E0007770B3E69AF8003001222B21EEE54BF010
:1041F000200B9AF80030E9E51193002A40F09587EA
:10420000224B18931BF0200F40F011810F9A1BF0E6
:10421000100F134640F0E1831BF0400F00F0DD83E8
:10422000043314880F9300251BF0010F00F00C815C
:1042300054EA050300F0088130239DF844208DF8EE
:1042400078308DF879204BF0020B022359E69AF86A
:10425000003000297FF4BAAD01222021B6E54BF0F1
:10426000010B9AF80030B1E50F9C23680D931846B6
:104270000028234603F10403FFF60AAE0F939AF8D1
:104280000030A3E5403A4500503A4500203A450049
:104290004BF0100B1BF0200F11933FF423AE0F9D3A
:1042A000073525F0070303F10802D3E900450F9213
:1042B000012326E69AF800302A2B0AF1010400F0C7
:1042C0002787A3F130000928A24600F2AD8600231B
:1042D0001C461AF8013B04EB840400EB4404A3F1F0
:1042E00030000928F5D90A9472E54BF0800B9AF852
:1042F00000306BE54BF0400B9AF8003066E59AF819
:1043000000306C2B03BF9AF801304BF0200B0AF100
:10431000010A4BF0100B59E5002A40F011871BF001
:10432000200F40F0F9841BF0100F40F0AC841BF01C
:10433000400F00F0A8840F9A136804320F92BDF862
:1043400024201A8011E50F99B34B0C681893302282
:10435000782304318DF8793011934BF0020B0F91D3
:1043600000258DF878200223CBE50F9911930A6878
:104370008DF8A02000230A461F468DF877300432BE
:1043800001230893CDF81CB00A9712970F920E9351
:1043900028AEDFE51193002A40F0EA861BF0200FDB
:1043A0005DD11BF0100F40F008831BF0400F00F0B0
:1043B00004830F99B1F900400431E51722462B46DA
:1043C0000F91002A73F1000358DB0A999DF877706A
:1043D0004A1C4FF001037FF49BAD54EA050200F044
:1043E000DF81CDF81CB0012B00F07B82022B40F066
:1043F000068218984E46230904F00F0143EA05731C
:104400002A091C461546435C06F8013D54EA05039B
:10441000F1D1A9EB06030E9390E51193002A40F029
:10442000A3867E4B18931BF0200F3FF4EFAE0F9D39
:10443000073525F0070303F108021BF0010F0F9267
:10444000D3E900457FF4F4AE02235AE51193002A24
:1044500040F086864BF0100B1BF0200FA1D00F9D73
:10446000073525F00705D5E90023002A05F10801E5
:104470001D4673F100030F911446A6DA2D276442FE
:1044800065EB45058DF8777001233DE51193002A12
:1044900040F062860F9D073525F0070303F10802FF
:1044A0000F921A6815925B681493149B159D23F064
:1044B0000044284621464FF0FF32594BFEF776FE66
:1044C000002840F04A83284621464FF0FF32544BE3
:1044D000FEF74EFE002840F0408315A80DC8149941
:1044E000FEF73CFE002840F030859DF877704D4E79
:1044F0004D4B2BF080000790119803220021089269
:104500000A914728D8BF1E460E9212911EE54BF025
:10451000080B9AF8003059E4A3F1300000231C4640
:104520001AF8013B04EB840400EB4404A3F13000CF
:104530000928F5D90D944BE44BF0100B11931BF0A7
:1045400020033FF41DAE0F9D073525F0070303F14F
:104550000802D3E900450F920023D2E41193002A08
:1045600040F0E785119A002A3FF4A3AC0023012113
:104570001F4608918DF8A020CDF81CB08DF877303B
:104580000A9312930E9128AEE4E4279C34E5119B24
:10459000652B40F3A78015A80DC81499FEF7D4FD2C
:1045A000002800F05081269B204AC8F800200133E3
:1045B00001340122072B27942693C8F8042000F326
:1045C0006A8308F108081F9B139A279C934203DB18
:1045D000079BDD077FF582AD269B19991A9AC8F8CB
:1045E000002001330C44072BC8F8041027942693AD
:1045F00000F39E8308F10808139B5E1E002E7FF7D0
:104600006DAD102E269B0A4D40F3F58122461027F2
:10461000DDF830B00B9C13E0203A45000C3A450021
:10462000FFFFEF7F003A4500FC3945003C3A45006A
:10463000503A450008F10808103E102E40F3DA8188
:1046400001331032072B2792269388E8A000F1DD72
:1046500025AA2146584604F01DF800287FF430AC06
:10466000279A269BC846E7E70D9B089A9F1A002FBA
:104670007FF7E5AC102F269BB64D27DD424621463D
:10468000B0464FF0100B2E460C9C0B9D04E0103FE3
:10469000102F02F1080215DD01331031072B27918D
:1046A000269382E84008F2DD25AA2946204603F039
:1046B000F1FF00287FF404AC103F102F2799269BB0
:1046C0004A46E9DC35460C464646904601333C44B2
:1046D000072B2794269388E8A00000F3328208F184
:1046E0000808ACE4139B269F012B40F3FE810137A1
:1046F00001340123072F27942697C8F80060C8F8D3
:10470000043000F3038208F10808199A1A9BC8F8CC
:10471000003001371444072F27942697C8F8042047
:1047200000F3008208F1080815A80DC81499FEF7D7
:104730000BFD139B002840F00181013B013701363E
:104740001C44072F26972794C8F80060C8F8043047
:1047500000F3278108F108081B9AC8F804200137E4
:10476000144421AB072F27942697C8F800307FF711
:10477000B3AC25AA0B990C9803F08CFF00287FF4AA
:104780009FAB279CC846A9E425AA0B990C9803F077
:1047900081FF00283FF4EBACFFF792BBDDF81CB0C3
:1047A000012B00F03481022B25D1CDF81CB0002460
:1047B00000251EE625AA0B990C9803F06BFF002834
:1047C0007FF47EAB279CC84675E425AA0B990C980C
:1047D00003F060FF00287FF473AB279CC8461BE4FE
:1047E00025AA0B990C9803F055FF00287FF468ABBD
:1047F000279CC84620E4CDF81CB00024002549467B
:1048000000E03146E20842EA4572E80804F0070396
:1048100005461446303354EA050201F8013C01F123
:10482000FF36EED1079AD2077FF5F3AD302B3FF478
:10483000F0AD0239302306F8013CA9EB01030E93D9
:104840000E46FFF77BBB1F99002940F32E82129B77
:10485000139A9342A8BF1346002B1F460DDD269BDB
:10486000C8F8006001333C44072B2794C8F8047053
:10487000269300F31F8308F10808129B002FA8BF9E
:10488000DB1B002B1F4640F3D680102F269B314D9B
:1048900040F3ED8142462146B0464FF0100B2E46C4
:1048A0000C9C0B9D04E00832103F102F40F3DB817D
:1048B00001331031072B2791269382E84008F2DD5F
:1048C00025AA2946204603F0E5FE00287FF4F8AA31
:1048D0002799269B4A46E7E70A9B0E934E46FFF729
:1048E0002DBB002D08BF0A2CC0F08F804E462046FD
:1048F00029460A22002304F019F9303206F8012D66
:104900002046294600230A2204F010F904460D46E9
:1049100054EA0503EBD1A9EB06030E93FFF70EBB98
:1049200025AA0B990C9803F0B5FE00287FF4C8AABD
:104930009DF87770279CC846FFF75EBB5E1E002E71
:104940007FF70AAF102E034D22DD22464FF0100BE9
:104950000C9C06E0503A4500103E102E08F1080865
:1049600015DD01371032072F2792269788E8200897
:10497000F2DD25AA0B99204603F08CFE00287FF477
:104980009FAA103E102E279A269FC846E9DC14469F
:1049900001373444072F2794269788E860007FF773
:1049A000D9AE25AA0B990C9803F074FE00287FF469
:1049B00087AA279C269FC846CEE60F9A14681346FE
:1049C0000433E5170F9322462B46FAE404321C68A1
:1049D0000F9201230025FFF794BA1C6804330F934C
:1049E000002521E40F990A4604320C680F92002535
:1049F000FFF787BA144601333444072B27942693D4
:104A000088E860007FF768ABB3E6DDF81CB0CDF84E
:104A10001CB042AE3034012306F8414D0E93FFF72F
:104A20008DBA25AA0B990C9803F034FE00287FF468
:104A300047AA279CC8461F9A139B9A4244DB079BB0
:104A4000D90741D4139B12989A1A1D1A9542A8BFF0
:104A50001546002D0EDD2699C8F804500131064494
:104A60002C440729C8F800602794269100F33B8264
:104A700008F10808002DACBF561B1646002E7FF724
:104A80002DAB102E269BB04DB5DD22461027DDF84C
:104A900030B00B9C04E008F10808103E102EA9DD90
:104AA00001331032072B2792269388E8A000F2DD0D
:104AB00025AA2146584603F0EDFD00287FF400AA00
:104AC000279A269BC846E8E7269B19981A99C8F8A2
:104AD000001001330444072B2794C8F804002693E0
:104AE00000F3F58108F10808ACE7079BDA073FF50A
:104AF000FEAD013701340123072F27942697C8F80C
:104B00000060C8F804307FF725AE4AE725AA0B9964
:104B10000C9803F0BFFD00287FF4D2A9279C269FA4
:104B2000C846F2E525AA0B990C9803F0B3FD0028BE
:104B30007FF4C6A9279C269FC846F5E54E46FFF799
:104B4000FDB925AA0B990C9803F0A4FD00287FF469
:104B5000B7A9279CC846FFF772BA159C2246204683
:104B6000149C23462146FEF721FB002840F0868254
:104B70000A9B0133119B23F020030E9300F0E28186
:104B8000472B00F01E814BF480730793149B1F1E6C
:104B9000159B0893BBBF3B4603F1004700232D2321
:104BA0001093119B662B00F0BB81462B00F0DF8039
:104BB0000E9B089A452B0CBF0A9B0A9D23A820A98F
:104BC00008BF5D1C049003911FA802213B46029080
:104BD000019500910C9801F0A3FA119B672B0646F2
:104BE00040F0E0811BF0010F00F046827419169A24
:104BF0000898179B3946FEF7A7FA002840F0658110
:104C0000239BA34206D230215A1C23921970239B66
:104C10009C42F9D89B1B13930E9B472B00F0E98015
:104C2000119B652B40F3CD81119B662B1F9B12932B
:104C300000F09E81139B129A1946914200F38A81DB
:104C40001BF0010F40F0138222EAE27308936723FE
:104C50000E921193109B002B40F0C4800A939DF894
:104C60007770FFF773B935460C46464690460133D8
:104C70003C44072B2794269388E8A0003FF7D1AE49
:104C800008F10808D7E60F9A136804320F92099AC0
:104C90001A60FFF76AB825AA0B990C9803F0FAFC82
:104CA00000287FF40DA9C8468DE4269B274AC8F842
:104CB0000020013301340122072B27942693C8F8E2
:104CC000042072DC08F1080829B9139B1BB9079B63
:104CD000D8077FF503AA269B19981A9AC8F80020CE
:104CE000013302462244072B2792C8F8040026937A
:104CF00000F38D8108F108080029C0F2658113993D
:104D0000C8F8006001338C18072B27942693C8F845
:104D100004107FF7E1A92CE50F9A09991368CD17C4
:104D20000846043229460F92C3E90001FFF71DB877
:104D300025AA0B990C9803F0ADFC00287FF4C0A8BD
:104D4000279CC84658E400BF503A45003C3A45000D
:104D500040210C98FEF7DCFA0B9A106010610028D5
:104D600000F0F2810B9A40235361FEF7EEBF23A8B7
:104D700020A90A9C049003911FA803210290089A7D
:104D800001943B4600910C9801F0CAF9254606466D
:104D9000119B462B06EB05047FF429AF3378302BAB
:104DA00000F078811F9D2C4421E725AA0B990C98CF
:104DB00003F070FC00287FF483A81F99279CC84645
:104DC00082E70A9B002B08BF01230A93DBE63046EB
:104DD0000A94FEF735FF0F950E90CDF81CB00346F0
:104DE000FFF7F9B92D2700238DF877700A93FFF7A5
:104DF000AEB81F9B12931A46033304DB0A9B194675
:104E00009142BFF617AF119B023B11939DF84430BE
:104E10008DF88430129B013B002B1F93BDBF129B6A
:104E2000C3F101032D222B22092B8DF8852040F39D
:104E300016810DF193042046AB4D00E0104685FB32
:104E40000312D917C1EBA20101EB8102A3EB4202CD
:104E50003032092900F8012C0B4600F1FF32EDDC5D
:104E600030330238D9B2844202F8011C40F2658125
:104E70000DF18600134601E013F8011B00F8011B39
:104E8000A342F9D101339B1A0DF18602134421AAE2
:104E90009B1A139A1B93012A13440E9340F3198112
:104EA0000E9B199A13440E9323EAE373089300238D
:104EB0001293CFE625AA0B990C9803F0EBFB002880
:104EC0007EF4FEAF279CC846D7E42346A2E625AA77
:104ED0000B990C9803F0DEFB00287EF4F1AF1F9ACB
:104EE000279CC846AEE525AA0B990C9803F0D2FB87
:104EF00000287EF4E5AF1F9A139B279C9A1AC84698
:104F0000B8E50A9B1296062B28BF06230A96374659
:104F100008930F95CDF81CB00E93744EFFF716B89A
:104F200023A820A90A9D049003911FA803210290A1
:104F3000089A01953B4600910C9801F0F1F806465D
:104F400044192BE706230A931DE62D278DF8777069
:104F5000FFF7CDBA199A139B1344129A0E93002AA5
:104F600040F3B08023EAE37308936723119371E65B
:104F7000002B40F3C3800A9A002A40F099801BF06E
:104F8000010F40F0958008930E9363E60A9B089307
:104F90000E930A900F95CDF81CB012909DF8777083
:104FA000FEF7D4BF119B472B7FF420AE1BF0010FFF
:104FB0007FF4EEAE239B9B1B13930E9B472B3FF47A
:104FC00018AF1F9B129321E74F421031484D2FDA43
:104FD0001024DDF830B004E008F10808103F102F6D
:104FE00026DD01331032072B27922693C8F8005094
:104FF000C8F80440F0DD25AA0B99584603F04AFB97
:1050000000287EF45DAF279A269BC846E6E725AACE
:105010000B990C9803F03EFB00287EF451AF1F99CA
:10502000279A269BC84667E600200A90FEF7D0BE66
:1050300001333A44072B88E8A0002792269308F111
:1050400008087FF75CAE25AA0B990C9803F022FBA9
:1050500000287EF435AF279A269BC8464FE63033AA
:1050600030228DF887308DF8862022AB0FE7129B17
:10507000199A13440E9375E7239BCBE5149B1D4EA1
:10508000002BB6BF2D279DF877708DF877701A4BDF
:10509000FFF72FBA169A0898179B3946FEF754F86F
:1050A00000287FF47FAEC5F101051F952C449EE5D5
:1050B000129B199A13440A9A1A4422EAE2730E9236
:1050C0000893C7E5129B0E9AC3F101031A441346D5
:1050D000D0E71BF0010312937FF4E2AE0E9B23EAAC
:1050E000E3730893B6E500BF67666666343A450029
:1050F000503A4500083A4500043A45000A9B13B966
:105100001BF0010F02D0199B0133D4E701233AE7CA
:105110000F9D9AF80130286840EAE0700A9028460E
:105120000430A2460F90FEF751BE8DF87710FFF7BE
:1051300067B88DF87710FFF715BA0DF18603A6E66C
:105140008DF87710FFF7EBB80C9A0C2313604FF033
:10515000FF330993FEF7BDBE8DF87710FFF79AB9BC
:105160008DF87710FFF776B98DF87710FFF759B9FA
:105170008DF87710FFF712B92DE9F84F4B6E9C04AC
:1051800093462FD59368126853B30E46074602F133
:10519000080919E920045FEA9A0817D0043D0024A1
:1051A00001E0A04510D0324655F8041F384602F001
:1051B0007BF8431C04F10104F3D10023CBF8083041
:1051C000CBF80430BDE8F88FDBF808302AF0030A8A
:1051D000A3EB0A03CBF8083009F10809002BD8D15A
:1051E0000020EAE702F0CAF90023CBF80830CBF838
:1051F0000430BDE8F88F00BF2DE9F04FADB01D467B
:105200008B4690460793069018B1836B002B00F0F5
:10521000F380DBF86430BBF90C00DF0781B202D405
:105220008E0540F1FC808C040AD4DBF8643040F435
:10523000005123F40053ABF80C10CBF8643089B262
:10524000080740F1B380DBF81030002B00F0AE808F
:1052500001F01A030A2B00F0B58000230DF170094C
:105260000B93119310930393CDF83C90CA46CDF85D
:1052700010B098F800304446FBB1252B02D11CE059
:10528000252B03D014F8013F002BF9D1A4EB08051E
:105290009DB1109B119ACAF8008001332A44072B54
:1052A000CAF80450119210937ADD002A40F0B084BD
:1052B000039B10922B44CA4603932378002B00F0E3
:1052C000E08300204FF000038DF8373004F101082F
:1052D00062780546064603464FF0FF3408F10108A0
:1052E000A2F12001582900F2DE82DFE811F021024C
:1052F000DC02DC022902DC02DC02DC02DC02DC0271
:10530000DC0289029502DC02A200BD02DC029F01E0
:10531000A401A401A401A401A401A401A401A40165
:10532000A401DC02DC02DC02DC02DC02DC02DC02C6
:10533000DC02DC02DC02B201DC02DC02DC02DC02A8
:10534000DC02DC02DC02DC02DC02DC029701DC02B3
:10535000DC02DC02DC02DC029B01DC02DC02530228
:10536000DC02DC02DC02DC02DC02DC02DC02DC024D
:10537000DC02DC025A021B02DC02DC02DC026E02EE
:105380001B02DC02DC027302DC02F501820109026D
:10539000D702DC029A02DC02A700DC02DC022E0249
:1053A0000AF1080A039B2B44039386E759460698A3
:1053B00000F0ACFD18BBBBF80C1001F01A030A2B6F
:1053C0007FF44BAFBBF90E30002BFFF646AFDBF896
:1053D0006430DB0705D48F0503D4DBF8580002F0F6
:1053E00091FA2B4642465946069800F04DFD03902F
:1053F00003982DB0BDE8F08F01F0B4FE09E7DBF8AB
:105400006430D90704D4BBF80C309A0540F1AA8463
:105410004FF0FF33039303982DB0BDE8F08FDBF816
:10542000580002F06DFABBF90C0081B2FBE676423F
:10543000079243F0040398F800204FE708969E0671
:1054400000F150840799DD060A4600F1EF83580603
:1054500040F1EC830E8804310027012207914FF0C0
:1054600000018DF837100025611C00F0168123F033
:105470008001029156EA070140F01481002C40F0AF
:105480005C83002A40F0B78313F00103059300F01A
:1054900057840DF1B00B30230BF8413D059BA3421F
:1054A000B8BF234601930DB101330193029B13F062
:1054B0000203099302D0019B02330193029B13F074
:1054C00084030A9340F01782089B019A9D1A002DCD
:1054D00040F31182102D40F39084109B119AC44E1A
:1054E000D6461027A2461946069C07E001F1020C99
:1054F0000EF1080E0146103D102D11DD481C103232
:10550000072811928EE8C0001090EFDD002A40F0CD
:10551000E481103D102D11464FF0010CCE46EDDC1C
:1055200054466146F2462A4407291192CAF800609F
:10553000CAF80450109100F3EC829DF837500AF13C
:10554000080A481C002D40F0DE81099B002B00F06A
:10555000F88102320EA902230728119210908AE8DE
:105560000A0040F3EA81002A40F08C830A9B802BDA
:105570004FF001001146CA4640F0E781089B019DAB
:105580005E1B002E40F3E181102E9A4D40F35084B3
:10559000D4461027A246069C07E001F1020E0CF14A
:1055A000080C0146103E102E11DD481C1032072851
:1055B00011928CE8A0001090EFDD002A40F09D824F
:1055C000103E102E4FF0010E1146CC46EDDC544635
:1055D000E2463244BEF1070F11928AE86000CDF82E
:1055E00040E000F369830AF1080A0EF101007146F8
:1055F000ABE1089613F0200240F08C8313F0100109
:1056000040F01A8313F0400200F0168307980A4610
:105610000146043106880791002720E7089643F0E9
:105620001003E7E7089643F0100308E743F0800310
:1056300098F8002052E6A2F13001002618F8012B5C
:1056400006EB860601EB4606A2F130010929F5D9E1
:1056500046E60896002840F0088443F010039E06B2
:1056600000F14C83DD0600F1F382580640F1F08230
:10567000079DB5F900602A46F717043230463946CF
:105680000792002871F10002C0F25D83611C9DF851
:1056900037504FF001027FF4EAAE56EA070100F0FE
:1056A0004D820293012A00F08C82022A40F05C8233
:1056B0000B98CB46330906F00F0143EA07733A090A
:1056C0001E461746435C0BF8013D56EA0703F1D12D
:1056D000A9EB0B030593E1E6002840F0C08399068F
:1056E00000F16783DA0600F1F1805B0640F1EE809D
:1056F000079A136804320792BDF80C201A80B8E5A7
:1057000007983D4A08960B920668782230210430AB
:105710008DF8392043F00203079000278DF83810E8
:1057200002229CE60896002899D08DF8375096E71B
:1057300098F80020002D7FF4D1AD01202025CDE583
:1057400043F0010398F80020C8E50896002840F0CF
:10575000938329490B919F0600F1E8820798DE06A2
:10576000014600F170825D0640F16D8204310688C9
:1057700007910027D80740F1228256EA070100F07E
:105780001E8230218DF8392043F002038DF8381045
:10579000022264E60896002840F06B8317490B91BB
:1057A000D9E7079908960A688DF848204FF000005D
:1057B0000A468DF8370004320120019007920590C7
:1057C0000DF1480B0293002470E643F0400398F873
:1057D000002083E598F800206C2A03BF98F8012088
:1057E00043F0200308F1010843F0100376E500BF01
:1057F000603A4500703A4500203A45000C3A4500B1
:1058000007990E680A46002E02F10402FFF60FAE59
:10581000079298F8002061E598F8002001202B25D8
:105820005CE507990896D1F800B04FF000028DF8BA
:1058300037200E1DBBF1000F00F0E582671C00F061
:10584000C482224600215846019302F0F1F8019BE0
:10585000002800F0E582A0EB0B0205920796029368
:105860009DF83750002419E698F800202A2A08F1FC
:10587000010700F0E982A2F130010929B8464FF092
:1058800000043FF62DAD18F8012B04EB840401EB66
:105890004404A2F130010929F5D921E543F02003A0
:1058A00098F800201AE50896002840F0DB82002ACC
:1058B00000F0E78001218DF848204FF000020191AF
:1058C0008DF8372005910DF1480B7BE7079A136897
:1058D00004320792039A1A60CBE40FAA0499204677
:1058E000FFF74AFC002840F039811099119A01F124
:1058F000010CCE46FFE51099119A481C9DF83750CF
:10590000002D3FF422AE01320DF1370501210728A9
:1059100011921090CAF80050CAF8041040F30881A0
:10592000002A40F0BC81099B002B3FF41FAE0EAB58
:10593000022208461C931D92CA4601460AF1080A33
:1059400001300A9B802B3FF419AE059BE41A002C12
:105950002EDD102CB34D1EDDD6461026069FDDF839
:1059600010A006E0881C0EF1080E1946103C102C01
:1059700010DD4B1C1032072B11928EE86000109343
:10598000F0DD002A65D1103C102C4FF001001146CB
:10599000CE46EEDCF246224407281192CAF80050A7
:1059A000CAF80440109000F385800AF1080A01301B
:1059B0000599CAF800B00A4407281192CAF80410E1
:1059C000109040F38280002A40F01881029B1092D0
:1059D000580735D5089B01995C1A002C40F3E780E5
:1059E000CA46102C40F3188210998F4E069FDDF89E
:1059F00010B0102506E0881C0AF1080A1946103C70
:105A0000102C11DD4B1C1032072B1192CAF80060CC
:105A1000CAF804501093EEDD42BB103C102C4FF03E
:105A200001001146CA46EDDC224407281192CAF84B
:105A30000060CAF80440109051DD002A40F09B81BC
:105A4000039B089A01998A42ACBF9B185B18039389
:105A50004EE00FAA51463846FFF78EFB002840F073
:105A60003F811099119A481CCE467FE70FAA5946EC
:105A70003846FFF781FB60B91099119A481CCA4655
:105A8000BDE7119BDDF810B0002B40F0D48100235E
:105A90001093DBF8643013F0010FBBF80C3002D127
:105AA0009A0540F1DE805B063FF5B2AC03982DB05D
:105AB000BDE8F08F002A40F00681059A1D9201236F
:105AC0001192CDF870B01093CA460AF1080A029BF1
:105AD000590704D5089B01995C1A002C81DC039BB3
